{
  "contractName": "LetaX",
  "abi": [
    {
      "inputs": [
        {
          "internalType": "string",
          "name": "_message",
          "type": "string"
        }
      ],
      "stateMutability": "nonpayable",
      "type": "constructor"
    },
    {
      "inputs": [],
      "name": "message",
      "outputs": [
        {
          "internalType": "string",
          "name": "",
          "type": "string"
        }
      ],
      "stateMutability": "view",
      "type": "function"
    },
    {
      "inputs": [],
      "name": "owner",
      "outputs": [
        {
          "internalType": "address",
          "name": "",
          "type": "address"
        }
      ],
      "stateMutability": "view",
      "type": "function"
    },
    {
      "inputs": [
        {
          "internalType": "address",
          "name": "newOwner",
          "type": "address"
        }
      ],
      "name": "setOwner",
      "outputs": [],
      "stateMutability": "nonpayable",
      "type": "function"
    },
    {
      "inputs": [
        {
          "internalType": "string",
          "name": "_message",
          "type": "string"
        }
      ],
      "name": "setMessage",
      "outputs": [],
      "stateMutability": "nonpayable",
      "type": "function"
    }
  ],
  "bytecode": "0x60806040523480156200001157600080fd5b5060405162000ab238038062000ab28339818101604052810190620000379190620002e4565b336000806101000a81548173ffffffffffffffffffffffffffffffffffffffff021916908373ffffffffffffffffffffffffffffffffffffffff16021790555080600190805190602001906200008f92919062000097565b505062000399565b828054620000a59062000364565b90600052602060002090601f016020900481019282620000c9576000855562000115565b82601f10620000e457805160ff191683800117855562000115565b8280016001018555821562000115579182015b8281111562000114578251825591602001919060010190620000f7565b5b50905062000124919062000128565b5090565b5b808211156200014357600081600090555060010162000129565b5090565b6000604051905090565b600080fd5b600080fd5b600080fd5b600080fd5b6000601f19601f8301169050919050565b7f4e487b7100000000000000000000000000000000000000000000000000000000600052604160045260246000fd5b620001b08262000165565b810181811067ffffffffffffffff82111715620001d257620001d162000176565b5b80604052505050565b6000620001e762000147565b9050620001f58282620001a5565b919050565b600067ffffffffffffffff82111562000218576200021762000176565b5b620002238262000165565b9050602081019050919050565b60005b838110156200025057808201518184015260208101905062000233565b8381111562000260576000848401525b50505050565b60006200027d6200027784620001fa565b620001db565b9050828152602081018484840111156200029c576200029b62000160565b5b620002a984828562000230565b509392505050565b600082601f830112620002c957620002c86200015b565b5b8151620002db84826020860162000266565b91505092915050565b600060208284031215620002fd57620002fc62000151565b5b600082015167ffffffffffffffff8111156200031e576200031d62000156565b5b6200032c84828501620002b1565b91505092915050565b7f4e487b7100000000000000000000000000000000000000000000000000000000600052602260045260246000fd5b600060028204905060018216806200037d57607f821691505b60208210810362000393576200039262000335565b5b50919050565b61070980620003a96000396000f3fe608060405234801561001057600080fd5b506004361061004c5760003560e01c806313af403514610051578063368b87721461006d5780638da5cb5b14610089578063e21f37ce146100a7575b600080fd5b61006b60048036038101906100669190610377565b6100c5565b005b610087600480360381019061008291906104ea565b610196565b005b6100916101b0565b60405161009e9190610542565b60405180910390f35b6100af6101d4565b6040516100bc91906105e5565b60405180910390f35b60008054906101000a900473ffffffffffffffffffffffffffffffffffffffff1673ffffffffffffffffffffffffffffffffffffffff163373ffffffffffffffffffffffffffffffffffffffff1614610153576040517f08c379a000000000000000000000000000000000000000000000000000000000815260040161014a90610653565b60405180910390fd5b806000806101000a81548173ffffffffffffffffffffffffffffffffffffffff021916908373ffffffffffffffffffffffffffffffffffffffff16021790555050565b80600190805190602001906101ac929190610262565b5050565b60008054906101000a900473ffffffffffffffffffffffffffffffffffffffff1681565b600180546101e1906106a2565b80601f016020809104026020016040519081016040528092919081815260200182805461020d906106a2565b801561025a5780601f1061022f5761010080835404028352916020019161025a565b820191906000526020600020905b81548152906001019060200180831161023d57829003601f168201915b505050505081565b82805461026e906106a2565b90600052602060002090601f01602090048101928261029057600085556102d7565b82601f106102a957805160ff19168380011785556102d7565b828001600101855582156102d7579182015b828111156102d65782518255916020019190600101906102bb565b5b5090506102e491906102e8565b5090565b5b808211156103015760008160009055506001016102e9565b5090565b6000604051905090565b600080fd5b600080fd5b600073ffffffffffffffffffffffffffffffffffffffff82169050919050565b600061034482610319565b9050919050565b61035481610339565b811461035f57600080fd5b50565b6000813590506103718161034b565b92915050565b60006020828403121561038d5761038c61030f565b5b600061039b84828501610362565b91505092915050565b600080fd5b600080fd5b6000601f19601f8301169050919050565b7f4e487b7100000000000000000000000000000000000000000000000000000000600052604160045260246000fd5b6103f7826103ae565b810181811067ffffffffffffffff82111715610416576104156103bf565b5b80604052505050565b6000610429610305565b905061043582826103ee565b919050565b600067ffffffffffffffff821115610455576104546103bf565b5b61045e826103ae565b9050602081019050919050565b82818337600083830152505050565b600061048d6104888461043a565b61041f565b9050828152602081018484840111156104a9576104a86103a9565b5b6104b484828561046b565b509392505050565b600082601f8301126104d1576104d06103a4565b5b81356104e184826020860161047a565b91505092915050565b600060208284031215610500576104ff61030f565b5b600082013567ffffffffffffffff81111561051e5761051d610314565b5b61052a848285016104bc565b91505092915050565b61053c81610339565b82525050565b60006020820190506105576000830184610533565b92915050565b600081519050919050565b600082825260208201905092915050565b60005b8381101561059757808201518184015260208101905061057c565b838111156105a6576000848401525b50505050565b60006105b78261055d565b6105c18185610568565b93506105d1818560208601610579565b6105da816103ae565b840191505092915050565b600060208201905081810360008301526105ff81846105ac565b905092915050565b7f464f5242494444454e0000000000000000000000000000000000000000000000600082015250565b600061063d600983610568565b915061064882610607565b602082019050919050565b6000602082019050818103600083015261066c81610630565b9050919050565b7f4e487b7100000000000000000000000000000000000000000000000000000000600052602260045260246000fd5b600060028204905060018216806106ba57607f821691505b6020821081036106cd576106cc610673565b5b5091905056fea2646970667358221220c99baf375cce826e124ac8752558d73193c108437ec9003c5220dbdb8a33eba464736f6c634300080d0033",
  "immutableReferences": {},
  "source": "// SPDX-License-Identifier: MIT\npragma solidity ^0.8.10;\n\ncontract LetaX {\n    address public owner;\n    string public message;\n\n    constructor(string memory _message) {\n        owner = msg.sender;\n        message = _message;\n    }\n\n    function setOwner(address newOwner) external {\n        require(msg.sender == owner, \"FORBIDDEN\");\n        owner = newOwner;\n    }\n\n    function setMessage(string memory _message) external {\n        message = _message;\n    }\n}\n",
  "sourcePath": "/Users/greg/Documents/Dev/l3ta-x/apps/hedera/contracts/LetaX.sol",
  "compiler": {
    "name": "solc",
    "version": "0.8.13+commit.abaa5c0e.Emscripten.clang"
  },
  "schemaVersion": "3.4.7",
  "updatedAt": "2022-04-27T18:31:17.374Z",
  "devdoc": {
    "kind": "dev",
    "methods": {},
    "version": 1
  },
  "userdoc": {
    "kind": "user",
    "methods": {},
    "version": 1
  }
}